:020000040800F2
:1000000024150020C505000825060008250600085F
:100010002506000825060008250600080000000047
:100020000000000000000000000000008916000829
:10003000250600080000000099170008E1170008D5
:1000400025060008250600082506000825060008E4
:1000500025060008250600082506000825060008D4
:1000600025060008250600082506000825060008C4
:1000700025060008250600082506000825060008B4
:1000800025060008250600082506000825060008A4
:100090002506000825060008250600082506000894
:1000A0002506000825060008250600082506000884
:1000B0002506000825060008250600082506000874
:1000C0002506000825060008250600082506000864
:1000D0002506000825060008250600082506000854
:1000E0002506000825060008250600080000000077
:1000F0000000000000000000000000000000000000
:1001000000000000000000005FF808F180B588B032
:1001100000AF786000237B6100233B617B68002B8C
:1001200022D00823DB437A689A421BD808227B68D6
:1001300013447B607B6803F00703002B14D07B68BB
:1001400003F00703C3F10803FB60FB68DB437A6835
:100150009A4204D87A68FB6813447B6004E0002369
:100160007B6001E000237B6000F036FE3B4B1B68A8
:10017000002B01D100F0BAF87B68002B67DB7B68AD
:10018000002B64D0364B1B687A689A425FD8354B97
:10019000BB61344B1B68FB6104E0FB69BB61FB691D
:1001A0001B68FB61FB695B687A689A4203D9FB694B
:1001B0001B68002BF1D1294B1B68FA699A4246D083
:1001C000BB691B68082213447B61FB691A68BB6921
:1001D0001A60FB695A687B68D21A08235B009A424E
:1001E00013D9FA697B681344BB60FB695A687B6862
:1001F000D21ABB685A60FB697A685A60BB691A6890
:10020000BB681A60BB69BA681A60154B1A68FB694B
:100210005B68D31A124A1360114B1A68124B1B68A1
:100220009A4203D20E4B1B680F4A1360FB695B684E
:100230003B61FB695B6843F00042FB695A60FB6904
:1002400000221A60094B1B680133084A136000F052
:10025000D1FD7B6918462037BD4680BD10100020B7
:100260001410002008100020181000201C1000207E
:1002700080B584B000AF78607B68FB607B68002B42
:100280002BD008235B42FA681344FB60FB68BB6019
:10029000BB685B68DB0F03F00103DBB2002B1CD0F3
:1002A000BB681B68002B18D1BB685B6823F0004259
:1002B000BB685A6000F090FDBB685A68094B1B6828
:1002C0001344084A1360B86800F06AF8064B1B68CC
:1002D0000133054A136000F08DFD00BF1037BD46A5
:1002E00080BD00BF141000202010002080B485B015
:1002F00000AF4FF48053BB60244BFB60FB6803F0FE
:100300000703002B0CD0FB680733FB60FB6823F06E
:100310000703FB60BA68FB68D31A1C4A1344BB602E
:10032000FB681B4A13601A4B00225A60FA68BB68CC
:1003300013447B6008227B689B1A7B607B6823F0F8
:1003400007037B607B68134A1360124B1B68002213
:100350005A60104B1B6800221A60FB683B603B68C8
:100360007A68D21A3B685A600A4B1A683B681A606E
:100370003B685B68084A13603B685B68074A136028
:1003800000BF1437BD4680BC704700BF0800002086
:100390000810002010100020181000201410002059
:1003A00080B485B000AF7860274BFB6002E0FB684B
:1003B0001B68FB60FB681B687A689A42F7D8FB6889
:1003C000BB60FB685B68BA6813447A689A4208D1DC
:1003D000FB685A687B685B681A44FB685A60FB6874
:1003E0007B607B68BB607B685B68BA681A44FB68AB
:1003F0001B689A4218D1FB681A68144B1B689A4212
:100400000DD07B685A68FB681B685B681A447B6880
:100410005A60FB681B681A687B681A6008E00B4B1F
:100420001A687B681A6003E0FB681A687B681A60C8
:10043000FA687B689A4202D0FB687A681A6000BF4B
:100440001437BD4680BC70470810002010100020F3
:1004500080B500AF154B1B68144A43F001031360CD
:10046000124B5A681149124B13404B600F4B1B68DB
:100470000E4A23F0847323F4803313600B4B1B6804
:100480000A4A23F480231360084B5B68074A23F46D
:10049000FE035360054B4FF41F029A6000F00CF806
:1004A000044B4FF000629A6000BF80BD0010024014
:1004B0000000FFF800ED00E080B500AF00F002F8AA
:1004C00000BF80BD80B483B000AF00237B600023F9
:1004D0003B603A4B1B68394A43F480331360374B17
:1004E0001B6803F400333B607B6801337B603B682F
:1004F000002B03D17B68B3F5A06FF0D12F4B1B68A5
:1005000003F40033002B02D001233B6001E0002301
:100510003B603B68012B4BD1294B1B68284A43F0B9
:1005200010031360264B1B68254A23F00303136056
:10053000234B1B68224A43F0020313601F4B1F4AE0
:100540005B6853601D4B1D4A5B6853601B4B5B68C7
:100550001A4A43F480635360184B5B68174A23F4CC
:100560007C135360154B5B68144A43F4E8135360E3
:10057000124B1B68114A43F08073136000BF0F4B8E
:100580001B6803F00073002BF9D00C4B5B680B4A1F
:1005900023F003035360094B5B68084A43F00203EE
:1005A000536000BF054B5B6803F00C03082BF9D1C7
:1005B00000BF0C37BD4680BC704700BF0010024032
:1005C0000020024080B582B000AF114B7B60114B20
:1005D0003B6007E07A68131D7B603B68191D39603A
:1005E00012681A603B680C4A9342F3D30B480C49DB
:1005F0004FF000028842B8BF40F8042BFADBFFF747
:1006000027FF00F017F900BF0837BD4680BD00BFC7
:100610002819000800000020080000200800002021
:100620002811002080B400AFFEE780B489B000AF8D
:10063000786039600023FB6100233B610023BB61CC
:100640000023FB6000237B610023BB603B68DB78F9
:1006500003F00F03FB613B68DB7803F01003002B12
:1006600005D03B689B781A46FB691343FB613B68E6
:100670001B88DBB2002B44D07B681B687B610023A6
:10068000BB6138E00122BB6902FA03F3FB603B68FF
:100690001B881A46FB6813403B613A69FB689A4223
:1006A00026D1BB699B00FB600F22FB6802FA03F3B3
:1006B000BB60BB68DB437A6913407B61FA69FB6806
:1006C00002FA03F37A6913437B613B68DB78282BDA
:1006D00005D10122BB699A407B685A6108E03B68FA
:1006E000DB78482B04D10122BB699A407B681A61F0
:1006F000BB690133BB61BB69072BC3D97B687A69CE
:100700001A603B681B88FF2B46D97B685B687B615E
:100710000023BB613AE0BB690833012202FA03F30C
:10072000FB603B681B881A46FB6813403B613A69D3
:10073000FB689A4227D1BB699B00FB600F22FB68D4
:1007400002FA03F3BB60BB68DB437A6913407B6149
:10075000FA69FB6802FA03F37A6913437B613B6829
:10076000DB78282B05D1BB69083301229A407B68CE
:100770005A613B68DB78482B05D1BB6908330122FD
:100780009A407B681A61BB690133BB61BB69072B67
:10079000C1D97B687A695A6000BF2437BD4680BCE6
:1007A000704780B483B000AF78600B467B807A8856
:1007B0007B681A6100BF0C37BD4680BC704780B4AF
:1007C00083B000AF78600B467B807A887B685A6183
:1007D00000BF0C37BD4680BC7047000080B582B0BA
:1007E00000AF0121082000F0D5F80121042000F01D
:1007F000D1F81023FB714FF44073BB800323BB710E
:100800003B1D19460948FFF710FF1023FB714FF4F9
:10081000C063BB800323BB713B1D19460448FFF72F
:1008200004FF00BF0837BD4680BD00BF000C01407B
:100830000008014080B582B002AFFFF709FEFFF764
:10084000CDFF002301930223009300234FF4807215
:100850001549164800F0F8F800230193022300938D
:1008600000234FF480721249124800F0EDF8002383
:1008700001930223009300234FF480720E490F4826
:1008800000F0E2F8002301930223009300234FF4C9
:1008900080720B490B4800F0D7F800F06FFA00BFE8
:1008A00000BF1846BD4680BDFC180008C9080008F6
:1008B00004190008F90800080C1900082D0900089F
:1008C000141900086109000880B582B000AF786093
:1008D0004FF400710748FFF764FFC82000F0D4F917
:1008E0004FF400710348FFF76AFFC82000F0CCF90D
:1008F000EEE700BF000C014080B582B000AF786029
:100900004FF480710848FFF74CFF4FF4C87000F0B7
:10091000BBF94FF480710448FFF751FF4FF4C870E2
:1009200000F0B2F9ECE700BF000C014080B582B0E6
:1009300000AF78604FF400710848FFF732FF4FF4C2
:10094000C87000F0A1F94FF400710448FFF737FFB9
:100950004FF4C87000F098F9ECE700BF00080140C0
:1009600080B582B000AF78604FF480610848FFF72F
:1009700018FF4FF4C87000F087F94FF48061044805
:10098000FFF71DFF4FF4C87000F07EF9ECE700BFE1
:100990000008014080B483B000AF78600B46FB7064
:1009A000FB78002B06D0094B9A6908497B681343F2
:1009B0008B6106E0054B9A697B68DB430349134072
:1009C0008B6100BF0C37BD4680BC704700100240F1
:1009D00080B58AB004AFF860B9607A603B607B682C
:1009E0009B001846FFF792FB38613B69002B13D040
:1009F0005020FFF78BFB78617B69002B08D05022D9
:100A00000021786900F028FF7B693A691A6305E0E4
:100A10003869FFF72DFC01E000237B617B69002B27
:100A20000DD0002303937B6902937B6A01933B6A99
:100A300000933B687A68B968F86800F028F87B6929
:100A400018461837BD4680BD80B588B002AFF86043
:100A5000B9607A603B607B6A01933B6A00933B68B4
:100A60007A68B968F868FFF7B3FF38613B69002B13
:100A700005D0386900F074F801237B6102E04FF083
:100A8000FF337B617B6918461837BD4680BD80B552
:100A900086B000AFF860B9607A603B60BB6A1A6BE1
:100AA0007B6803F18043013B9B0013443B613B693E
:100AB00023F007033B61BB68002B1ED000237B6142
:100AC00012E0BA687B6913441978BA6A7B691344E7
:100AD00034330A461A70BA687B6913441B78002BBA
:100AE00006D07B6901337B617B69092BE9D900E082
:100AF00000BFBB6A002283F83D203B6A042B01D96A
:100B000004233B62BB6A3A6ADA62BB6A3A6A1A64D5
:100B1000BB6A0433184600F004FDBB6A183318465C
:100B200000F0FFFCBB6ABA6A1A613B6AC3F10502B6
:100B3000BB6A9A61BB6ABA6A5A623A68F9683869EC
:100B400000F05CFD0246BB6A1A607B6A002B02D093
:100B50007B6ABA6A1A6000BF1837BD4680BD0000C4
:100B600080B584B000AF786000F0E2FD3F4B1B68B9
:100B700001333E4A13603E4B1B68002B09D13C4AAF
:100B80007B681360394B1B68012B10D100F090FB80
:100B90000DE0384B1B68002B09D1354B1B68DA6A16
:100BA0007B68DB6A9A4202D8314A7B681360324B19
:100BB0001B680133304A13607B68DB6A01229A406C
:100BC0002E4B1B6813432D4A13607B68DA6A2C494D
:100BD00013469B0013449B000B4404331B68FB60CB
:100BE0007B68FA689A60FB689A687B68DA60FB68E1
:100BF0009B687A6804325A607B681A1DFB689A60A9
:100C00007B68DA6A13469B0013449B001C4A1A4413
:100C10007B685A617B68DA6A194913469B00134462
:100C20009B000B441B687A68D26A591C144813460F
:100C30009B0013449B000344196000F093FD0D4B8F
:100C40001B68002B0ED00A4B1B68DA6A7B68DB6AD4
:100C50009A4207D20B4B4FF080521A60BFF34F8F6E
:100C6000BFF36F8F00BF1037BD4680BDFC10002062
:100C70002410002008110020181100200411002069
:100C80002810002004ED00E080B584B000AF78604B
:100C90000023FB607B68002B08D000F09DF800214A
:100CA000786800F09DFB00F0A5F8F860FB68002B69
:100CB00007D1064B4FF080521A60BFF34F8FBFF33E
:100CC0006F8F00BF1037BD4680BD00BF04ED00E050
:100CD00080B58AB002AF0123FB6100237B6007F17E
:100CE000080300221A609A8000233B6100237B6185
:100CF00011E01F4A7B69134419783A1D7B6913443C
:100D00000A461A703A1D7B6913441B78002B06D0E3
:100D10007B6901337B617B69082BEAD900E000BF66
:100D20003A1D7B69134400221A700023BB6115E051
:100D3000104B3B61BB699B000F4A1344391D019363
:100D400000230093002380223869FFF77DFEF861BD
:100D5000FB69012B06D1BB690133BB61BB69002B69
:100D6000E6DD00E000BFFB6918462037BD4680BDC8
:100D700020190008811200082011002080B582B0DF
:100D800000AFFFF7A5FF78607B68012B15D14FF00E
:100D9000BF0383F31188BFF36F8FBFF34F8F3B60A7
:100DA00000BF094B4FF0FF321A60084B01221A6056
:100DB000074B00221A6000F08DFC064B1B6800BF39
:100DC0000837BD4680BD00BF1C110020081100205F
:100DD000001100200000002080B400AF044B1B680D
:100DE0000133034A136000BFBD4680BC704700BF9B
:100DF0002411002080B588B000AF0023FB610023E0
:100E0000BB6100F095FC00233B616D4B1B68013B0F
:100E10006B4A13606A4B1B68002B40F0CA80694B19
:100E20001B68002B00F0C5808EE0674BDB68DB6839
:100E3000FB61FB699B6AFB60FB69DB69FA69126A0B
:100E40009A60FB691B6AFA69D2695A60FB685A6842
:100E5000FB6918339A4203D1FB691A6AFB685A602E
:100E6000FB6900229A62FB681B685A1EFB681A60C5
:100E7000FB695B69BB60FB699B68FA69D2689A6031
:100E8000FB69DB68FA6992685A60BB685A68FB695B
:100E900004339A4203D1FB69DA68BB685A60FB6984
:100EA00000225A61BB681B685A1EBB681A60FB6946
:100EB000DB6A01229A40454B1B681343434A136087
:100EC000FB69DA6A424913469B0013449B000B44BA
:100ED00004331B687B60FB697A689A607B689A6858
:100EE000FB69DA607B689B68FA6904325A60FB69C7
:100EF0001A1D7B689A60FB69DA6A13469B001344EB
:100F00009B00334A1A44FB695A61FB69DA6A30492B
:100F100013469B0013449B000B441B68FA69D26A7A
:100F2000591C2B4813469B0013449B000344196033
:100F3000FB69DA6A274B1B68DB6A9A4204D9264AA6
:100F40003B69012142F823101F4B1B68002B7FF4E3
:100F50006CAFFB69002B01D000F028FA1F4B1B6817
:100F60007B617B69002B12D000F03CF80346002B1C
:100F700004D0194A3B69012142F823107B69013BE7
:100F80007B617B69002BEFD1144B00221A60124A5F
:100F90003B6952F82330002B0BD00123BB610D4B72
:100FA0001B680F4B4FF080521A60BFF34F8FBFF397
:100FB0006F8F00F0D7FBBB6918462037BD4680BD58
:100FC00024110020FC100020BC100020041100207F
:100FD0002810002024100020101100200C110020E7
:100FE00004ED00E080B588B000AF0023FB61764BD4
:100FF0001B68002B40F0DE80744B1B680133BB6123
:10100000724ABB691360BB69002B10D1704B1B681F
:101010007B61704B1B686E4A13606E4A7B6913607C
:101020006D4B1B6801336C4A136000F0BFF96B4BCA
:101030001B68BA699A42C0F0A880654B1B681B68A0
:10104000002B04D1654B4FF0FF321A609DE0604BDE
:101050001B68DB68DB683B613B695B68FB60BA6906
:10106000FB689A4203D25D4AFB6813608DE03B69DE
:101070005B69BB603B699B683A69D2689A603B696F
:10108000DB683A6992685A60BB685A683B69043306
:101090009A4203D13B69DA68BB685A603B69002217
:1010A0005A61BB681B685A1EBB681A603B699B6A21
:1010B000002B1ED03B699B6A7B603B69DB693A6908
:1010C000126A9A603B691B6A3A69D2695A607B6806
:1010D0005A683B6918339A4203D13B691A6A7B68A4
:1010E0005A603B6900229A627B681B685A1E7B68C3
:1010F0001A603B69DB6A01229A40394B1B68134333
:10110000374A13603B69DA6A364913469B00134439
:101110009B000B4404331B683B603B693A689A6050
:101120003B689A683B69DA603B689B683A690432BD
:101130005A603B691A1D3B689A603B69DA6A13463C
:101140009B0013449B00274A1A443B695A613B6940
:10115000DA6A244913469B0013449B000B441B6826
:101160003A69D26A591C1F4813469B0013449B00DE
:10117000034419603B69DA6A1B4B1B68DB6A9A42BD
:101180007FF65BAF0123FB6157E7174B1B68DA6AF9
:10119000144913469B0013449B000B441B68012B0E
:1011A00001D90123FB61114B1B68002B07D00123E0
:1011B000FB6104E00E4B1B6801330D4A1360FB69B1
:1011C00018462037BD4680BD2411002000110020A4
:1011D000B4100020B8100020141100201C110020B1
:1011E00004110020281000202410002010110020DD
:1011F0000C11002080B485B000AF1C4B1B68002B85
:1012000003D01B4B01221A602BE0194B00221A60FD
:10121000184B1B687B607B68B3FA83F3FB70FB7829
:10122000C3F11F03FB60FA6813469B0013449B0045
:10123000114A1344BB60BB685B685A68BB685A605C
:10124000BB685A68BB6808339A4203D1BB68DA6846
:10125000BB685A60BB685B68DB68084A1360074B71
:101260001B6800BF1437BD4680BC704724110020A6
:10127000101100200411002028100020241000204C
:1012800080B582B000AF786000F052F8064B1B6862
:10129000012BF9D9054B4FF080521A60BFF34F8FE5
:1012A000BFF36F8FF0E700BF2810002004ED00E0CF
:1012B00080B582B000AF00237B600CE07A681346F3
:1012C0009B0013449B00124A1344184600F00AF98D
:1012D0007B6801337B607B68042BEFD90D4800F0FD
:1012E00001F90D4800F0FEF80C4800F0FBF80C483E
:1012F00000F0F8F80B4800F0F5F80B4B054A1A60BF
:101300000A4B054A1A6000BF0837BD4680BD00BFC2
:10131000281000208C100020A0100020BC100020FD
:10132000D0100020E8100020B4100020B8100020D9
:1013300080B582B000AF19E000F0FAF9104BDB681D
:10134000DB687B607B680433184600F02EF90D4B98
:101350001B68013B0B4A13600B4B1B68013B0A4A9D
:10136000136000F0FFF9786800F010F8064B1B6876
:10137000002BE1D100BF00BF0837BD4680BD00BFD4
:10138000D0100020FC100020E410002080B582B0B6
:1013900000AF78607B681B6B1846FEF769FF7868C2
:1013A000FEF766FF00BF0837BD4680BD80B400AFC2
:1013B000094B1B681B68002B04D1084B4FF0FF3210
:1013C0001A6005E0044B1B68DB681B68034A136066
:1013D00000BFBD4680BC7047B41000201C11002027
:1013E00080B588B000AF78603960374B1B68FB610F
:1013F000364B1B68BB61364B1B687B61354B1B68EA
:101400000433184600F0D1F80346002B0BD1314BC2
:101410001B68DB6A012202FA03F3DA432E4B1B68D6
:1014200013402D4A13607B68B3F1FF3F24D13B6822
:10143000002B21D0294B5B683B61264B1B683A6926
:101440009A60244B1B683A699268DA60214B1A68EB
:101450003B699B6804325A601E4B1B681A1D3B692E
:101460009A601C4B1B681D4A5A611C4B1B68013358
:101470001A4A136000BF22E0FA697B681344FB60DC
:10148000144B1B68FA685A60FA68FB699A4207D2E3
:10149000104B1B6804331946786900F04EF80EE0D3
:1014A0000C4B1B6804331946B86900F046F80C4B26
:1014B0001B68FA689A4202D2094AFB68136000BFAF
:1014C0002037BD4680BD00BF00110020B4100020B1
:1014D000B81000202410002004110020E810002083
:1014E0001C11002080B483B000AF78607B6803F1EA
:1014F00008027B685A607B684FF0FF329A607B6815
:1015000003F108027B68DA607B6803F108027B68FC
:101510001A617B6800221A6000BF0C37BD4680BC90
:10152000704780B483B000AF78607B6800221A6196
:1015300000BF0C37BD4680BC704780B485B000AF9B
:10154000786039603B681B68BB60BB68B3F1FF3FE4
:1015500003D17B681B69FB600CE07B680833FB6090
:1015600002E0FB685B68FB60FB685B681B68BA684D
:101570009A42F6D2FB685A683B685A603B685B68DF
:101580003A689A603B68FA689A60FB683A685A6001
:101590003B687A681A617B681B685A1C7B681A6012
:1015A00000BF1437BD4680BC704780B485B000AF23
:1015B00078607B681B69FB607B685B687A6892680F
:1015C0009A607B689B687A6852685A60FB685B68BF
:1015D0007A689A4203D17B689A68FB685A607B6894
:1015E00000221A61FB681B685A1EFB681A60FB68C0
:1015F0001B6818461437BD4680BC704780B485B060
:1016000000AFF860B9607A60FB68043BFB60FB6880
:101610004FF080721A60FB68043BFB60BB6823F0EC
:101620000102FB681A60FB68043BFB60084AFB6828
:101630001A60FB68143BFB607A68FB681A60FB6801
:10164000203BFB60FB6818461437BD4680BC7047E2
:101650005516000880B483B000AF00233B604FF004
:10166000BF0383F31188BFF36F8FBFF34F8F7B608E
:1016700000BF00BF3B68002BFCD000BF00BF0C3791
:10168000BD4680BC70470000074B19680868B0E889
:10169000F00F80F30988BFF36F8F4FF0000080F3E5
:1016A00011884EF00D0E70472410002000BF00BFBF
:1016B00006480068006880F3088862B661B6BFF328
:1016C0004F8FBFF36F8F00DF00BF000008ED00E019
:1016D00000BF00BF80B582B000AF114B1B687B60BC
:1016E000104B1B680F4A43F47F0313600D4B1B68BC
:1016F0000C4A43F07F4313600B4B00221A6000F04A
:1017000091F80A4B00221A60FFF7D2FFFFF772FD33
:10171000FFF7A0FF002318460837BD4680BD00BF75
:1017200008ED00E020ED00E01CED00E004000020EA
:1017300080B483B000AF4FF0BF0383F31188BFF3D1
:101740006F8FBFF34F8F7B6000BF054B1B6801336A
:10175000034A136000BF0C37BD4680BC704700BF12
:101760000400002080B483B000AF0A4B1B68013B2B
:10177000084A1360074B1B68002B05D100237B60D0
:101780007B6883F3118800BF00BF0C37BD4680BC67
:10179000704700BF04000020EFF30980BFF36F8F94
:1017A0000D4B1A6820E9F00F10602DE908404FF04A
:1017B000BF0080F31188FFF71DFD4FF0000080F39C
:1017C0001188BDE8084019680868B0E8F00F80F398
:1017D0000988BFF36F8F70472410002000BF00BF3F
:1017E00080B582B000AF4FF0BF0383F31188BFF321
:1017F0006F8FBFF34F8F7B6000BFFFF7F3FB034694
:10180000002B03D0064B4FF080521A6000233B6040
:101810003B6883F3118800BF00BF0837BD4680BD19
:1018200004ED00E080B400AF074B00221A60074BC4
:1018300000221A60064B074A1A60034B07221A60FF
:1018400000BFBD4680BC704710E000E018E000E03B
:1018500014E000E03F190100830730B548D0541E62
:10186000002A3FD00346CAB201E0013C3AD303F854
:10187000012B9D07F9D1032C2DD9CDB245EA0525C1
:101880000F2C45EA054536D9A4F1100222F00F0CC1
:1018900003F1200EE6444FEA121C03F1100242E964
:1018A000045542E9025510327245F8D10CF101029B
:1018B00014F00C0F03EB021204F00F0C13D0ACF178
:1018C000040323F003030433134442F8045B9342FC
:1018D000FBD10CF003042CB1CAB21C4403F8012B59
:1018E0009C42FBD130BD64461346002CF4D1F9E78D
:1018F00003461446BFE71A46A446E0E74C45445F5A
:10190000504238004C45445F504239004C45445FDA
:10191000504139004C45445F5041313000000000D7
:0519200049444C4500A4
:0819280004000000AAAAAAAA0B
:0400000508000000EF
:00000001FF
